{
  "contractName": "VouchMarket",
  "abi": [
    {
      "inputs": [
        {
          "internalType": "uint256",
          "name": "_feeDivisor",
          "type": "uint256"
        },
        {
          "internalType": "uint64",
          "name": "_cooldownTime",
          "type": "uint64"
        },
        {
          "internalType": "address",
          "name": "_UBIburner",
          "type": "address"
        }
      ],
      "stateMutability": "nonpayable",
      "type": "constructor"
    },
    {
      "anonymous": false,
      "inputs": [
        {
          "indexed": true,
          "internalType": "uint64",
          "name": "idProposal",
          "type": "uint64"
        }
      ],
      "name": "LogClaimVouchNotPerformed",
      "type": "event"
    },
    {
      "anonymous": false,
      "inputs": [
        {
          "indexed": true,
          "internalType": "uint64",
          "name": "idProposal",
          "type": "uint64"
        },
        {
          "indexed": true,
          "internalType": "address",
          "name": "user",
          "type": "address"
        },
        {
          "indexed": false,
          "internalType": "uint256",
          "name": "amount",
          "type": "uint256"
        },
        {
          "indexed": false,
          "internalType": "uint64",
          "name": "timeLimit",
          "type": "uint64"
        },
        {
          "indexed": false,
          "internalType": "address",
          "name": "voucher",
          "type": "address"
        }
      ],
      "name": "LogProposal",
      "type": "event"
    },
    {
      "anonymous": false,
      "inputs": [
        {
          "indexed": true,
          "internalType": "uint64",
          "name": "idProposal",
          "type": "uint64"
        },
        {
          "indexed": true,
          "internalType": "address",
          "name": "voucher",
          "type": "address"
        }
      ],
      "name": "LogProposalLocked",
      "type": "event"
    },
    {
      "anonymous": false,
      "inputs": [
        {
          "indexed": true,
          "internalType": "uint64",
          "name": "idProposal",
          "type": "uint64"
        },
        {
          "indexed": true,
          "internalType": "address",
          "name": "voucher",
          "type": "address"
        }
      ],
      "name": "LogRewardForVouchingClaimed",
      "type": "event"
    },
    {
      "anonymous": false,
      "inputs": [
        {
          "indexed": true,
          "internalType": "uint64",
          "name": "idProposal",
          "type": "uint64"
        },
        {
          "indexed": true,
          "internalType": "address",
          "name": "withdrawer",
          "type": "address"
        },
        {
          "indexed": false,
          "internalType": "uint256",
          "name": "fund",
          "type": "uint256"
        },
        {
          "indexed": false,
          "internalType": "uint256",
          "name": "fee",
          "type": "uint256"
        }
      ],
      "name": "LogWithdrawn",
      "type": "event"
    },
    {
      "inputs": [],
      "name": "cooldownTime",
      "outputs": [
        {
          "internalType": "uint64",
          "name": "",
          "type": "uint64"
        }
      ],
      "stateMutability": "view",
      "type": "function",
      "constant": true
    },
    {
      "inputs": [],
      "name": "feeDivisor",
      "outputs": [
        {
          "internalType": "uint256",
          "name": "",
          "type": "uint256"
        }
      ],
      "stateMutability": "view",
      "type": "function",
      "constant": true
    },
    {
      "inputs": [],
      "name": "proposalCounter",
      "outputs": [
        {
          "internalType": "uint64",
          "name": "",
          "type": "uint64"
        }
      ],
      "stateMutability": "view",
      "type": "function",
      "constant": true
    },
    {
      "inputs": [
        {
          "internalType": "uint64",
          "name": "",
          "type": "uint64"
        }
      ],
      "name": "proposalMap",
      "outputs": [
        {
          "internalType": "address",
          "name": "user",
          "type": "address"
        },
        {
          "internalType": "uint64",
          "name": "timeLimit",
          "type": "uint64"
        },
        {
          "internalType": "uint256",
          "name": "amount",
          "type": "uint256"
        },
        {
          "internalType": "address",
          "name": "voucher",
          "type": "address"
        }
      ],
      "stateMutability": "view",
      "type": "function",
      "constant": true
    },
    {
      "inputs": [
        {
          "internalType": "address",
          "name": "",
          "type": "address"
        }
      ],
      "name": "timeLastLockMap",
      "outputs": [
        {
          "internalType": "uint64",
          "name": "",
          "type": "uint64"
        }
      ],
      "stateMutability": "view",
      "type": "function",
      "constant": true
    },
    {
      "inputs": [
        {
          "internalType": "uint64",
          "name": "addedTime",
          "type": "uint64"
        },
        {
          "internalType": "address",
          "name": "voucher",
          "type": "address"
        }
      ],
      "name": "submitProposal",
      "outputs": [],
      "stateMutability": "payable",
      "type": "function",
      "payable": true
    },
    {
      "inputs": [
        {
          "internalType": "uint64",
          "name": "idProposal",
          "type": "uint64"
        }
      ],
      "name": "lockProposal",
      "outputs": [],
      "stateMutability": "nonpayable",
      "type": "function"
    },
    {
      "inputs": [
        {
          "internalType": "uint64",
          "name": "idProposal",
          "type": "uint64"
        },
        {
          "internalType": "uint64",
          "name": "addedTime",
          "type": "uint64"
        },
        {
          "internalType": "address",
          "name": "voucher",
          "type": "address"
        }
      ],
      "name": "updateProposal",
      "outputs": [],
      "stateMutability": "payable",
      "type": "function",
      "payable": true
    },
    {
      "inputs": [
        {
          "internalType": "uint64",
          "name": "idProposal",
          "type": "uint64"
        }
      ],
      "name": "claimRewardForVouching",
      "outputs": [],
      "stateMutability": "nonpayable",
      "type": "function"
    },
    {
      "inputs": [
        {
          "internalType": "uint64",
          "name": "idProposal",
          "type": "uint64"
        }
      ],
      "name": "claimVouchNotPerformed",
      "outputs": [],
      "stateMutability": "nonpayable",
      "type": "function"
    },
    {
      "inputs": [
        {
          "internalType": "uint256",
          "name": "_feeDivisor",
          "type": "uint256"
        },
        {
          "internalType": "uint64",
          "name": "_cooldownTime",
          "type": "uint64"
        },
        {
          "internalType": "address",
          "name": "_UBIburner",
          "type": "address"
        }
      ],
      "name": "changeParameters",
      "outputs": [],
      "stateMutability": "nonpayable",
      "type": "function"
    },
    {
      "inputs": [
        {
          "internalType": "address",
          "name": "_maintainer",
          "type": "address"
        }
      ],
      "name": "changeMaintainer",
      "outputs": [],
      "stateMutability": "nonpayable",
      "type": "function"
    }
  ],
  "bytecode": "0x6080604052600080546001600160a01b031916736686c5858c56af38bd336fc05011bd51714c9e0517905534801561003657600080fd5b5060405161141a38038061141a833981016040819052610055916100bc565b600380546001600160a01b03199081163317909155600193909355600280546001600160401b039093166801000000000000000002600160401b600160801b031990931692909217909155600480546001600160a01b039290921691909216179055610115565b6000806000606084860312156100d0578283fd5b835160208501519093506001600160401b03811681146100ee578283fd5b60408501519092506001600160a01b038116811461010a578182fd5b809150509250925092565b6112f6806101246000396000f3fe6080604052600436106100a75760003560e01c80639dd6fdc8116100645780639dd6fdc814610198578063a12ee7ba146101b8578063a30bcf31146101d8578063b319c6b7146101f8578063b4399be91461021f578063c281b70914610232576100a7565b80630c0512e9146100ac57806325b4e195146100e95780636ad0bf9a1461010b57806396a2da3d1461014157806397f56a8e146101545780639a36f93214610174575b600080fd5b3480156100b857600080fd5b506002546100cc906001600160401b031681565b6040516001600160401b0390911681526020015b60405180910390f35b3480156100f557600080fd5b506101096101043660046110cd565b6102c3565b005b34801561011757600080fd5b506100cc610126366004611055565b6006602052600090815260409020546001600160401b031681565b61010961014f3660046110e9565b6104fd565b34801561016057600080fd5b5061010961016f3660046110cd565b6106ae565b34801561018057600080fd5b5061018a60015481565b6040519081526020016100e0565b3480156101a457600080fd5b506101096101b33660046110cd565b61096d565b3480156101c457600080fd5b506101096101d3366004611055565b610ab6565b3480156101e457600080fd5b506101096101f3366004611090565b610b36565b34801561020457600080fd5b506002546100cc90600160401b90046001600160401b031681565b61010961022d36600461111d565b610be8565b34801561023e57600080fd5b5061028b61024d3660046110cd565b6005602052600090815260409020805460018201546002909201546001600160a01b0380831693600160a01b9093046001600160401b031692911684565b604080516001600160a01b0395861681526001600160401b0390941660208501528301919091529190911660608201526080016100e0565b6001600160401b038116600090815260056020526040808220805483549251639797304360e01b81526001600160a01b039182166004820181905292949293919091169063979730439060240160c06040518083038186803b15801561032857600080fd5b505afa15801561033c573d6000803e3d6000fd5b505050506040513d601f19601f82011682018060405250810190610360919061114c565b5050505050905060008360010154116103945760405162461bcd60e51b815260040161038b906111c5565b60405180910390fd5b60028301546001600160a01b031633146103f05760405162461bcd60e51b815260206004820152601760248201527f596f7520617265206e6f742074686520766f7563686572000000000000000000604482015260640161038b565b60ff81166002148061047a575060005460405163c3c5a54760e01b81526001600160a01b0384811660048301529091169063c3c5a5479060240160206040518083038186803b15801561044257600080fd5b505afa158015610456573d6000803e3d6000fd5b505050506040513d601f19601f8201168201806040525081019061047a9190611076565b6104b85760405162461bcd60e51b815260206004820152600f60248201526e10d85b89dd0818db185a5b481e595d608a1b604482015260640161038b565b60405133906001600160401b038616907f3e61ff08c82a63157e9e30ef34014439899ac62e0835a958d4771152643d085390600090a36104f784610dd1565b50505050565b6002546001600160401b03166000818152600560205260409020348061054e5760405162461bcd60e51b81526020600482015260066024820152656d6f6e65793f60d01b604482015260640161038b565b600061055a8642611209565b8354600185018490556001600160e01b0319163367ffffffffffffffff60a01b191617600160a01b6001600160401b0383160217845590506001600160a01b038516156105f6576002830180546001600160a01b0319166001600160a01b0387169081179091556040516001600160401b038616907f1adf7fadfc320d777751d4424a44a0318723be389e60d26fa54b9c964548790890600090a35b600280546001600160401b031690600061060f8361126b565b91906101000a8154816001600160401b0302191690836001600160401b0316021790555050336001600160a01b0316846001600160401b03167fc064cb50cf05d938a4a26da1c0c492ef70d47ff0a6977732d0fe22eed9120a0784848960405161069e939291909283526001600160401b039190911660208301526001600160a01b0316604082015260600190565b60405180910390a3505050505050565b60008054604051639797304360e01b81523360048201526001600160a01b039091169063979730439060240160c06040518083038186803b1580156106f257600080fd5b505afa158015610706573d6000803e3d6000fd5b505050506040513d601f19601f8201168201806040525081019061072a919061114c565b506001600160401b038716600090815260056020526040902060018101549196509450151592506107709150505760405162461bcd60e51b815260040161038b906111c5565b60028101546001600160a01b0316156107c05760405162461bcd60e51b8152602060048201526012602482015271131bd8dad959081bdc88185cdcda59db995960721b604482015260640161038b565b60005460405163c3c5a54760e01b81523360048201526001600160a01b039091169063c3c5a5479060240160206040518083038186803b15801561080357600080fd5b505afa158015610817573d6000803e3d6000fd5b505050506040513d601f19601f8201168201806040525081019061083b9190611076565b6108785760405162461bcd60e51b815260206004820152600e60248201526d139bdd081c9959da5cdd195c995960921b604482015260640161038b565b600254336000908152600660205260409020546108a8916001600160401b03600160401b90910481169116611209565b6001600160401b0316421180156108bd575081155b6108fb5760405162461bcd60e51b815260206004820152600f60248201526e10d85b89dd081d9bdd58da081e595d608a1b604482015260640161038b565b33600081815260066020526040808220805467ffffffffffffffff1916426001600160401b03908116919091179091556002850180546001600160a01b031916851790559051908616917f1adf7fadfc320d777751d4424a44a0318723be389e60d26fa54b9c964548790891a3505050565b6001600160401b038116600090815260056020526040902080546001600160a01b031633146109c95760405162461bcd60e51b81526020600482015260086024820152674e6963652074727960c01b604482015260640161038b565b8054600160a01b90046001600160401b0316421180156109ed575060008160010154115b80610a03575060028101546001600160a01b0316155b610a755760405162461bcd60e51b815260206004820152603860248201527f446f6e65206f7220686173206120766f756368657220616e642074686520746960448201527f6d65206c696d6974206973206e6f74206f766572207965740000000000000000606482015260840161038b565b6040516001600160401b038316907f71dcf2ed4f46f6d212662e4ea4de37c08263093155942815151a062906a3b5b790600090a2610ab282610dd1565b5050565b6003546001600160a01b03163314610b015760405162461bcd60e51b815260206004820152600e60248201526d2737ba1036b0b4b73a30b4b732b960911b604482015260640161038b565b6001600160a01b038116610b1457600080fd5b600380546001600160a01b0319166001600160a01b0392909216919091179055565b6003546001600160a01b03163314610b815760405162461bcd60e51b815260206004820152600e60248201526d2737ba1036b0b4b73a30b4b732b960911b604482015260640161038b565b6004831015610b8f57600080fd5b600192909255600280546001600160401b03909216600160401b026fffffffffffffffff000000000000000019909216919091179055600480546001600160a01b039092166001600160a01b0319909216919091179055565b6001600160401b038316600090815260056020526040902080546001600160a01b03163314610c445760405162461bcd60e51b81526020600482015260086024820152674e6963652074727960c01b604482015260640161038b565b6000816001015411610c685760405162461bcd60e51b815260040161038b906111c5565b600281015481546001600160a01b039091169042906001600160401b03808316600160a01b909204161015610cee576001600160a01b03821615610cee5760405162461bcd60e51b815260206004820152601760248201527f576169742074696d65206c696d69742065787069726573000000000000000000604482015260640161038b565b6000610cfa8683611209565b60018501549091503415610d1c57610d1234826111f1565b6001860181905590505b845467ffffffffffffffff60a01b1916600160a01b6001600160401b038416021785556001600160a01b0384811690871614610d70576002850180546001600160a01b0319166001600160a01b0388161790555b604080518281526001600160401b0384811660208301526001600160a01b03891682840152915133928b16917fc064cb50cf05d938a4a26da1c0c492ef70d47ff0a6977732d0fe22eed9120a07919081900360600190a35050505050505050565b6001600160401b03811660009081526005602052604081206001805490820154919291610dfe9190611234565b90506000610e0d600583611234565b90506000610e1b8284611254565b90506000838560010154610e2f9190611254565b60006001870155604080518281526020810187905291925033916001600160401b038916917f84b69bea29dd4f13393f2a22870b42fc206d493f8fbec72ff98b7a27d01e87a0910160405180910390a36003546040516000916001600160a01b03169085908381818185875af1925050503d8060008114610ecc576040519150601f19603f3d011682016040523d82523d6000602084013e610ed1565b606091505b5050905080610f0d5760405162461bcd60e51b8152602060048201526008602482015267151e0c4819985a5b60c21b604482015260640161038b565b6004546040516000916001600160a01b03169085908381818185875af1925050503d8060008114610f5a576040519150601f19603f3d011682016040523d82523d6000602084013e610f5f565b606091505b5050905080610f9b5760405162461bcd60e51b8152602060048201526008602482015267151e0c8819985a5b60c21b604482015260640161038b565b604051600090339085908381818185875af1925050503d8060008114610fdd576040519150601f19603f3d011682016040523d82523d6000602084013e610fe2565b606091505b505090508061101e5760405162461bcd60e51b8152602060048201526008602482015267151e0cc819985a5b60c21b604482015260640161038b565b505050505050505050565b80356001600160a01b038116811461104057600080fd5b919050565b8051801515811461104057600080fd5b600060208284031215611066578081fd5b61106f82611029565b9392505050565b600060208284031215611087578081fd5b61106f82611045565b6000806000606084860312156110a4578182fd5b8335925060208401356110b6816112a8565b91506110c460408501611029565b90509250925092565b6000602082840312156110de578081fd5b813561106f816112a8565b600080604083850312156110fb578182fd5b8235611106816112a8565b915061111460208401611029565b90509250929050565b600080600060608486031215611131578283fd5b833561113c816112a8565b925060208401356110b6816112a8565b60008060008060008060c08789031215611164578182fd5b865160ff81168114611174578283fd5b6020880151909650611185816112a8565b6040880151909550611196816112a8565b93506111a460608801611045565b92506111b260808801611045565b915060a087015190509295509295509295565b60208082526012908201527157726f6e672074696d65206f7220646f6e6560701b604082015260600190565b6000821982111561120457611204611292565b500190565b60006001600160401b0380831681851680830382111561122b5761122b611292565b01949350505050565b60008261124f57634e487b7160e01b81526012600452602481fd5b500490565b60008282101561126657611266611292565b500390565b60006001600160401b038083168181141561128857611288611292565b6001019392505050565b634e487b7160e01b600052601160045260246000fd5b6001600160401b03811681146112bd57600080fd5b5056fea264697066735822122085459d4dc0754f4559cf45c179c9a9579849c92d7fed6445373e901f7b6b7d7c64736f6c63430008030033",
  "immutableReferences": {},
  "source": "// SPDX-License-Identifier: GPL-3.0\npragma solidity ^0.8;\n\n/**\n * @title ProofOfHumanity Interface\n * @dev See https://github.com/Proof-Of-Humanity/Proof-Of-Humanity.\n */\ninterface IProofOfHumanity {\n    function isRegistered(address _submissionID)\n        external\n        view\n        returns (bool registered);\n\n    function getSubmissionInfo(address _submissionID)\n        external\n        view\n        returns (\n            uint8 status,\n            uint64 submissionTime,\n            uint64 index,\n            bool registered,\n            bool hasVouched,\n            uint256 numberOfRequests\n        );\n}\n\ncontract VouchMarket {\n    /** @dev To be emitted when a proposal is submitted.\n     *  @param idProposal Unique identifier of the proposal.\n     *  @param user The user that receives the vouch.\n     *  @param amount The ETH sent by the user.\n     *  @param timeLimit Time limit until the user can claim his own funds.\n     *  @param voucher The person who vouch.\n     */\n    event LogProposal(\n        uint64 indexed idProposal,\n        address indexed user,\n        uint256 amount,\n        uint64 timeLimit,\n        address voucher\n    );\n    /**\n     *  @dev Emitted when a voucher locks a proposal.\n     *  @param idProposal Unique identifier of the proposal.\n     *  @param voucher The person who locks and vouch the proposal.\n     */\n    event LogProposalLocked(uint64 indexed idProposal, address indexed voucher);\n    /**\n     *  @dev Emitted when a proposal reward is claimed.\n     *  @param idProposal Unique identifier of the proposal.\n     *  @param voucher The person who vouch.\n     */\n    event LogRewardForVouchingClaimed(\n        uint64 indexed idProposal,\n        address indexed voucher\n    );\n    /**\n     *  @dev Emitted when a vouch is not performed for this proposal.\n     *  @param idProposal Unique identifier of the proposal.\n     */\n    event LogClaimVouchNotPerformed(uint64 indexed idProposal);\n    /**\n     *  @dev To be emitted when a withdrawal occurs.\n     *  @param idProposal Unique identifier of the proposal.\n     *  @param withdrawer The person who withdraws.\n     *  @param fund The ETH sent to the person who withdraws.\n     *  @param fee The contract fee.\n     */\n    event LogWithdrawn(\n        uint64 indexed idProposal,\n        address indexed withdrawer,\n        uint256 fund,\n        uint256 fee\n    );\n\n    // Proof of Humanity contract.\n    IProofOfHumanity private PoH =\n        IProofOfHumanity(0x6686c5858c56AF38Bd336fC05011BD51714C9e05);\n    /// @dev Divisor to calculate the fee, higher the value, higher the voucher reward\n    uint256 public feeDivisor;\n    /// @dev Counter of submitted proposals\n    uint64 public proposalCounter;\n    /// @dev Minimum waiting time to lock another proposal\n    uint64 public cooldownTime;\n    // Contract maintainer\n    address private maintainer;\n    // UBIburner contract\n    address private UBIburner;\n\n    struct Proposal {\n        address user; //Person who need the vouch\n        uint64 timeLimit; //If someone locks it and does not claim it, time limit to wait and withdraw your funds\n        uint256 amount; //Transactions cost + incentive + fee to burn UBI\n        address voucher; //Person selected to vouch or person who lock the proposal\n    }\n\n    /// @dev Map all the proposals by their IDs. idProposal -> Proposal\n    mapping(uint64 => Proposal) public proposalMap;\n\n    /// @dev Map the last time a user locks a proposal. voucher -> time\n    mapping(address => uint64) public timeLastLockMap;\n\n    constructor(\n        uint256 _feeDivisor,\n        uint64 _cooldownTime,\n        address _UBIburner\n    ) {\n        maintainer = msg.sender;\n        feeDivisor = _feeDivisor;\n        cooldownTime = _cooldownTime;\n        UBIburner = _UBIburner;\n    }\n\n    modifier onlyMaintainer() {\n        require(msg.sender == maintainer, \"Not maintainer\");\n        _;\n    }\n\n    /**\n     *  @dev Submit proposal.\n     *  @param addedTime Time limit until the user can claim his own funds.\n     *  @param voucher (Optional) The person who give the vouch. Address 0 to denote that anyone can vouch.\n     */\n    function submitProposal(uint64 addedTime, address voucher)\n        external\n        payable\n    {\n        uint64 idProposal = proposalCounter;\n        Proposal storage thisProposal = proposalMap[idProposal];\n        uint256 amount = msg.value;\n        require(amount > 0, \"money?\");\n        uint64 timeLimit = uint64(block.timestamp) + addedTime;\n        thisProposal.user = msg.sender;\n        thisProposal.amount = amount;\n        thisProposal.timeLimit = timeLimit;\n        if (voucher != address(0)) {\n            thisProposal.voucher = voucher;\n            emit LogProposalLocked(idProposal, voucher);\n        }\n        proposalCounter++;\n        emit LogProposal(idProposal, msg.sender, amount, timeLimit, voucher);\n    }\n\n    /**\n     *  @dev Lock the proposal before the vouch happens and only the locker will be able to claim it. Reducing the voucher race.\n     *  @param idProposal The ID of the proposal.\n     */\n    function lockProposal(uint64 idProposal) external {\n        (, , , , bool hasVouched, ) = PoH.getSubmissionInfo(msg.sender);\n        Proposal storage thisProposal = proposalMap[idProposal];\n        require(thisProposal.amount > 0, \"Wrong time or done\");\n        require(thisProposal.voucher == address(0), \"Locked or assigned\");\n        require(PoH.isRegistered(msg.sender), \"Not registered\"); //Avoid invalid vouch\n        require(\n            block.timestamp > timeLastLockMap[msg.sender] + cooldownTime &&\n                !hasVouched,\n            \"Can't vouch yet\"\n        ); //Avoid multiple locks at the same time and vouchers w/o available vouch\n        timeLastLockMap[msg.sender] = uint64(block.timestamp);\n        thisProposal.voucher = msg.sender;\n        emit LogProposalLocked(idProposal, msg.sender);\n    }\n\n    /**\n     *  @dev Update the proposal to increase the reward and set a new time limit.\n     *  @param idProposal The ID of the proposal.\n     *  @param addedTime Time limit until the user can claim his own funds.\n     *  @param voucher (Optional) The person who vouch. Address 0 to denote that anyone can vouch.\n     */\n    function updateProposal(\n        uint64 idProposal,\n        uint64 addedTime,\n        address voucher\n    ) external payable {\n        Proposal storage thisProposal = proposalMap[idProposal];\n        require(thisProposal.user == msg.sender, \"Nice try\");\n        require(thisProposal.amount > 0, \"Wrong time or done\");\n        address designedVoucher = thisProposal.voucher;\n        uint64 moment = uint64(block.timestamp);\n        if (thisProposal.timeLimit < moment)\n            require(designedVoucher == address(0), \"Wait time limit expires\");\n        uint64 timeLimit = moment + addedTime;\n        uint256 amount = thisProposal.amount;\n        if (msg.value > 0) {\n            amount += msg.value;\n            thisProposal.amount = amount;\n        }\n        thisProposal.timeLimit = timeLimit;\n        if (voucher != designedVoucher) thisProposal.voucher = voucher;\n        emit LogProposal(idProposal, msg.sender, amount, timeLimit, voucher);\n    }\n\n    /**\n     *  @dev After vouch for a proposal, claim the proposal reward.\n     *  @param idProposal The ID of the proposal.\n     */\n    function claimRewardForVouching(uint64 idProposal) external {\n        Proposal storage thisProposal = proposalMap[idProposal];\n        address user = thisProposal.user;\n        (uint8 status, , , , , ) = PoH.getSubmissionInfo(user);\n        require(thisProposal.amount > 0, \"Wrong time or done\");\n        require(thisProposal.voucher == msg.sender, \"You are not the voucher\");\n        require(\n            status == uint8(2) || PoH.isRegistered(user), //status == 2 is pending registration\n            \"Can't claim yet\"\n        );\n        emit LogRewardForVouchingClaimed(idProposal, msg.sender);\n        pay(idProposal);\n    }\n\n    /**\n     *  @dev If the user is not vouched in time limit, user can claim his own funds.\n     *  @param idProposal The ID of the proposal.\n     */\n    function claimVouchNotPerformed(uint64 idProposal) external {\n        Proposal storage thisProposal = proposalMap[idProposal];\n        require(thisProposal.user == msg.sender, \"Nice try\");\n        require(\n            ((block.timestamp > thisProposal.timeLimit &&\n                thisProposal.amount > 0) ||\n                (thisProposal.voucher == address(0))),\n            \"Done or has a voucher and the time limit is not over yet\"\n        );\n        emit LogClaimVouchNotPerformed(idProposal);\n        pay(idProposal);\n    }\n\n    /**\n     *  @dev Calculate and withdraw the funds of the proposal.\n     *  @param idProposal The ID of the proposal.\n     */\n    function pay(uint64 idProposal) private {\n        Proposal storage thisProposal = proposalMap[idProposal];\n        uint256 fee = thisProposal.amount / feeDivisor;\n        uint256 feeToMaintainer = fee / 5; //20% of the fee for the maintainer. That is a maximum of 5% of the deposit.\n        uint256 feeToBurnUBI = fee - feeToMaintainer; //80% of the fee to burn UBIs. That is a maximum of 20% of the deposit.\n        uint256 fund = thisProposal.amount - fee;\n        thisProposal.amount = 0;\n        emit LogWithdrawn(idProposal, msg.sender, fund, fee);\n        (bool successTx1, ) = maintainer.call{value: feeToMaintainer}(\"\");\n        require(successTx1, \"Tx1 fail\");\n        (bool successTx2, ) = UBIburner.call{value: feeToBurnUBI}(\"\");\n        require(successTx2, \"Tx2 fail\");\n        (bool successTx3, ) = msg.sender.call{value: fund}(\"\");\n        require(successTx3, \"Tx3 fail\");\n    }\n\n    /**\n     *  @dev Change Fee Divisor Commission Calculator and the cooldown time to wait after a proposal lock.\n     *  @param _feeDivisor The divisor to calculate the fee, the higher this value is, the lower the fee and the higher the reward for the voucher.\n     *  @param _cooldownTime Minimum waiting time to lock another proposal.\n     */\n    function changeParameters(\n        uint256 _feeDivisor,\n        uint64 _cooldownTime,\n        address _UBIburner\n    ) external onlyMaintainer {\n        require(_feeDivisor >= 4);\n        feeDivisor = _feeDivisor;\n        cooldownTime = _cooldownTime;\n        UBIburner = _UBIburner;\n    }\n\n    /**\n     *  @dev Change maintainer.\n     *  @param _maintainer The address of the new maintainer\n     */\n    function changeMaintainer(address _maintainer) external onlyMaintainer {\n        require(_maintainer != address(0));\n        maintainer = _maintainer;\n    }\n}\n",
  "sourcePath": "C:/Users/Jimy/Desktop/VouchMarket/contracts/VouchMarket.sol",
  "compiler": {
    "name": "solc",
    "version": "0.8.3+commit.8d00100c.Emscripten.clang"
  },
  "schemaVersion": "3.2.5",
  "updatedAt": "2021-09-05T21:41:08.788Z",
  "networkType": "ethereum",
  "devdoc": {
    "events": {
      "LogClaimVouchNotPerformed(uint64)": {
        "details": "Emitted when a vouch is not performed for this proposal.",
        "params": {
          "idProposal": "Unique identifier of the proposal."
        }
      },
      "LogProposal(uint64,address,uint256,uint64,address)": {
        "details": "To be emitted when a proposal is submitted.",
        "params": {
          "amount": "The ETH sent by the user.",
          "idProposal": "Unique identifier of the proposal.",
          "timeLimit": "Time limit until the user can claim his own funds.",
          "user": "The user that receives the vouch.",
          "voucher": "The person who vouch."
        }
      },
      "LogProposalLocked(uint64,address)": {
        "details": "Emitted when a voucher locks a proposal.",
        "params": {
          "idProposal": "Unique identifier of the proposal.",
          "voucher": "The person who locks and vouch the proposal."
        }
      },
      "LogRewardForVouchingClaimed(uint64,address)": {
        "details": "Emitted when a proposal reward is claimed.",
        "params": {
          "idProposal": "Unique identifier of the proposal.",
          "voucher": "The person who vouch."
        }
      },
      "LogWithdrawn(uint64,address,uint256,uint256)": {
        "details": "To be emitted when a withdrawal occurs.",
        "params": {
          "fee": "The contract fee.",
          "fund": "The ETH sent to the person who withdraws.",
          "idProposal": "Unique identifier of the proposal.",
          "withdrawer": "The person who withdraws."
        }
      }
    },
    "kind": "dev",
    "methods": {
      "changeMaintainer(address)": {
        "details": "Change maintainer.",
        "params": {
          "_maintainer": "The address of the new maintainer"
        }
      },
      "changeParameters(uint256,uint64,address)": {
        "details": "Change Fee Divisor Commission Calculator and the cooldown time to wait after a proposal lock.",
        "params": {
          "_cooldownTime": "Minimum waiting time to lock another proposal.",
          "_feeDivisor": "The divisor to calculate the fee, the higher this value is, the lower the fee and the higher the reward for the voucher."
        }
      },
      "claimRewardForVouching(uint64)": {
        "details": "After vouch for a proposal, claim the proposal reward.",
        "params": {
          "idProposal": "The ID of the proposal."
        }
      },
      "claimVouchNotPerformed(uint64)": {
        "details": "If the user is not vouched in time limit, user can claim his own funds.",
        "params": {
          "idProposal": "The ID of the proposal."
        }
      },
      "lockProposal(uint64)": {
        "details": "Lock the proposal before the vouch happens and only the locker will be able to claim it. Reducing the voucher race.",
        "params": {
          "idProposal": "The ID of the proposal."
        }
      },
      "submitProposal(uint64,address)": {
        "details": "Submit proposal.",
        "params": {
          "addedTime": "Time limit until the user can claim his own funds.",
          "voucher": "(Optional) The person who give the vouch. Address 0 to denote that anyone can vouch."
        }
      },
      "updateProposal(uint64,uint64,address)": {
        "details": "Update the proposal to increase the reward and set a new time limit.",
        "params": {
          "addedTime": "Time limit until the user can claim his own funds.",
          "idProposal": "The ID of the proposal.",
          "voucher": "(Optional) The person who vouch. Address 0 to denote that anyone can vouch."
        }
      }
    },
    "stateVariables": {
      "cooldownTime": {
        "details": "Minimum waiting time to lock another proposal"
      },
      "feeDivisor": {
        "details": "Divisor to calculate the fee, higher the value, higher the voucher reward"
      },
      "proposalCounter": {
        "details": "Counter of submitted proposals"
      },
      "proposalMap": {
        "details": "Map all the proposals by their IDs. idProposal -> Proposal"
      },
      "timeLastLockMap": {
        "details": "Map the last time a user locks a proposal. voucher -> time"
      }
    },
    "version": 1
  },
  "userdoc": {
    "kind": "user",
    "methods": {},
    "version": 1
  }
}